{
  "config" : {
    "chainId" : 1337,
    "muirglacierblock" : 0,
    "ibft2" : {
      "blockperiodseconds" : 8,
      "epochlength" : 30000,
      "requesttimeoutseconds" : 16,
      "messageQueueLimit": 50000,
      "duplicateMesageLimit": 5000,
      "futureMessagesLimit": 50000
    },
    "transitions": {
      "ibft2": [
        {
          "block": 0,
          "validators": [
            "0x024d0d4473f6720f90a7a9fc2e6a979fc5a1a8f1",
            "0x312b563fdb6756677edede9319db86c7699b1d33",
            "0x3543b4fa87d221ed3b69189da20d3d3103806891",
            "0x35e75804935258cfcc4ea3d4bd8c6d4072dfc247",
            "0xf92bbe9ddc72f5e78494879ee371e79d6df6ddc3"
          ]
        }
      ]
    }
  },

  "nonce" : "0x0",
  "timestamp" : "0x0",
  "gasLimit" : "0x47b760",
  "difficulty" : "0x1",
  "mixHash" : "0x63746963616c2062797a616e74696e65206661756c7420746f6c6572616e6365",
  "coinbase" : "0x0000000000000000000000000000000000000000",
  "extraData" : "0xf9085fa00000000000000000000000000000000000000000000000000000000000000000f90834947e0c33befaae5ffa86b28c2e8687900f8431038794685dbaa260ccf940b61a5b6c2f8cbf4c86b63c5494871956b5ac7066b35307f214f81a2c8c88f24721946729ebb1393f0d45c40b05391e99c0ba6dcdb9649468dd421a76c4c9c31a2e3da61d896b357f009648944d72e187a4b023929e40d605eabd3d7f53867c6894912115fa658d0f15c295968633c2c290fbcec74694b35a8bd1c6c9e635c88ea454063fb2ca3a7d35bd94c3527102410929ad2dc6891417303b4553a4277f947b2f8b0ffb45a4cbe5ace3966a792d5f7a6714c89435e75804935258cfcc4ea3d4bd8c6d4072dfc24794bdb76b23ec1c3564de0e815c4db7fd128e876317941bbab9851dc26d4859b527c90caaede251da8396946d73ebed4cf6b199b34c8e018551436cd67ff01194312b563fdb6756677edede9319db86c7699b1d33941dbf9a8673e80d5ead01e61a43a246a590d441ec9481afebf8a88798bb89ba3bdc758d6684960b55bc94f7113ce39d455d7719b5ce57d8de5840384a0cc094f86a9fec1e8acbd3f6b9bb0a62261dcf9f5e3420945132234c98b829b60043a514bcb80be240414bc594d943c1db65a57ca2b0feada0f1e304a1ba12b56694796fa406d3d160f43933058fcabaa0dc9d06ecbd94614309a1164714287be7055497663b1b9da63b96947c22ced07c3bf5e7e47cba837aa5e2b4e3c19b8894cc91306c5a72e170216996d6077f987656f9da8d9440bc09d90ed4138b850e9541e37cc8dc744b80a09419923cf7da92ba0e0b1019af987c53debe6ae5d7943d709ffdda40b45969893d1fb59db3bd25a3ad17943e8a03c55a8cc984f2c4fac0408bcf8a375ca9379476c4734d3bda86a566e464409f46cc6655a6b9e59413494a731573b2599340c76114289f96db7af0e1949746e17676cf82be8bca3b9253bfb2b85fdcc2f8949ec638e561d93dd0105a2c74454914d6784968c694730b32ef450fd702cad322a54c7ae741722ead8594bf5fef357616de9e15f31f3ff4b4015b187db49e94f863da67e911e91441aa054963179d5d7dbc948194ad14032579d0c6b278606f1b3dd0da5d617f443594d58d1f35bb6fc968c4b7a648796ad62d592cd070947b42413702f550cef50a55b95a60c932e4a19c2b945006deaf7bd68347cffc7ac70dec64fe8d44ffc5942368a83af4fb1817781e5eece4b08e584ede6de8941322f66a4446d9b97a401d9b607ae814ae2917ca94a12fbce5f443644cc0cd65c5b35ce5ebbd5c72df94f5894b4118cbba306c27bdf7909e172c7c0a2700943ef743455bea103bb93b1032fe0c964642ab5b539455aba9818e777d0b5b21ef5631ad3b8e5f5d71e6947c51a0b95174f73b8b2aae4adde12d50f42cc5c994f92bbe9ddc72f5e78494879ee371e79d6df6ddc394b12fda47a40c3b784d5d768d7a3bce60fde032c7948bda1ae1e70bbaa5274b3025fcb3ddf9a943c84b943b05fcd44445118ac7d3ec7b8640b4c33f94877c9490e434901961b099966dddbd2789faa46c92e0ef944ea8d6adde0855896bf9f06b0b53421d758f8c0f945626961582f031bddc39bb053096973f88ae3934944736cd3c4b6a7624b8bf29160a4d82e5c2e0b37194f4f6da0666364a1e2b92612193b51571efbdfe619428aad5122ed3e2e763122d78fa57f22687f7100794f3bcc670a0d31f22d404a9c391fc4701722e437194db0b3067c7e4caedec19de23e387caeda185293594555b503fd5cc6919a3da08b928da7f0668f3ef38947366780a648400dc8c7e181509bfad17cbe7ee4794dd6f2f4991bc4042ef61daac325e651f93b0de3c9416fc718a1eed55f51b8b901d8564e90f28a2181f94c34816c1b57e0790d27565d31579980b9de2000494607a7fd84b2d8ab26c6296fc9a447413badf4567945f528c041f08471deec43a18555c5f07780c712994bf5ae00838a2a5579d9c0d3553b8324457e0e54394f851c06a602cccaf2a714a5743b3723d01334715947098e42444cdf0d4c8a7fcfddcdedf23befd618f94cb927ac01daa6cc8c2f010855318c1dcf2900fe89402ef059449af72e17b654271c3c4440bdeb6038c94024d0d4473f6720f90a7a9fc2e6a979fc5a1a8f19482ac710f854b2595539458851edb48d603521a97945de64f6d0da8e7030c6c3d54753673d945234701947eb7257dae3e0fc9d200f2647e2ee718e4081c93943dc15b9d6ca33c2df4ed9e100a084fad86759c1494d0a9731c1141648695f1d1bd927efb3037cdd01a9471959585fb8e271232628eafbbdf52be8ffc8e8494185c79b513cc46612060391cbbdff6909803b58394c777f0eeb04fe066889dd7a64b701dced7478c1e943ed1e94e1afce34b76637f7f9f96dd7d5f71c2d794af2fa2d3ccf356dc72f31144bc2d0342cbda7388941db662f1e250209f602bc65f9ec3427991a03bf1940998d6779f42c1695cc710327ea494e7f8487fc294c7359f94fcadca3796ce0b9833399c420a1e24f094a1696d2a1fe46c978d1aa5ecd819a783802151679439c1dfebc3c379ffcaaab169abece847749f8cfa94dc71061dbb6b3ce75937047d42d1da85f446d2ce94681266c9a4e7ab1a884170e0e7e6eec2e50149db9430f70119ed69f613f78a34374bca644222be2094948d1a0fe89550a6247d6858a659bc9128002cdb74944e5383d79af14bf322de0c8ed56e3ba3509ebd0f941f7bef3a786de24bccf8a5b1ca2e298e1571a4359480d389794b3768345188a92ccabcc14ec95258fa94ea3ecfe91cfe6ab332bf6346a252c87ec8008467941b720bd10101d3b9c66f77d6c911c78b2c962a389442b8d2c758baf440c512394bdbb1e9bd1be3806e943543b4fa87d221ed3b69189da20d3d310380689194fb4c8b115de3b2b11e6cc4a1a023cff0621b5ef1944e58308caaf0280fe4399595b0281a2338702163808400000000c0"
}